{
  "contractName": "ColdChain",
  "abi": [
    {
      "anonymous": false,
      "inputs": [
        {
          "indexed": false,
          "internalType": "address",
          "name": "entityId",
          "type": "address"
        },
        {
          "indexed": false,
          "internalType": "string",
          "name": "entityMode",
          "type": "string"
        }
      ],
      "name": "AddEntity",
      "type": "event"
    },
    {
      "anonymous": false,
      "inputs": [
        {
          "indexed": false,
          "internalType": "uint256",
          "name": "vaccineBatchId",
          "type": "uint256"
        },
        {
          "indexed": true,
          "internalType": "address",
          "name": "manufacturer",
          "type": "address"
        }
      ],
      "name": "AddVaccineBatch",
      "type": "event"
    },
    {
      "anonymous": false,
      "inputs": [
        {
          "indexed": true,
          "internalType": "address",
          "name": "issuer",
          "type": "address"
        },
        {
          "indexed": true,
          "internalType": "address",
          "name": "prover",
          "type": "address"
        },
        {
          "indexed": false,
          "internalType": "uint256",
          "name": "certificateId",
          "type": "uint256"
        }
      ],
      "name": "IssueCertificate",
      "type": "event"
    },
    {
      "inputs": [],
      "name": "MAX_CERTIFICATIONS",
      "outputs": [
        {
          "internalType": "uint256",
          "name": "",
          "type": "uint256"
        }
      ],
      "stateMutability": "view",
      "type": "function",
      "constant": true
    },
    {
      "inputs": [
        {
          "internalType": "uint256",
          "name": "",
          "type": "uint256"
        }
      ],
      "name": "certificateIds",
      "outputs": [
        {
          "internalType": "uint256",
          "name": "",
          "type": "uint256"
        }
      ],
      "stateMutability": "view",
      "type": "function",
      "constant": true
    },
    {
      "inputs": [
        {
          "internalType": "uint256",
          "name": "",
          "type": "uint256"
        }
      ],
      "name": "certificates",
      "outputs": [
        {
          "internalType": "uint256",
          "name": "id",
          "type": "uint256"
        },
        {
          "components": [
            {
              "internalType": "address",
              "name": "id",
              "type": "address"
            },
            {
              "internalType": "enum ColdChain.Mode",
              "name": "mode",
              "type": "uint8"
            },
            {
              "internalType": "uint256[]",
              "name": "certificateIds",
              "type": "uint256[]"
            }
          ],
          "internalType": "struct ColdChain.Entity",
          "name": "issuer",
          "type": "tuple"
        },
        {
          "components": [
            {
              "internalType": "address",
              "name": "id",
              "type": "address"
            },
            {
              "internalType": "enum ColdChain.Mode",
              "name": "mode",
              "type": "uint8"
            },
            {
              "internalType": "uint256[]",
              "name": "certificateIds",
              "type": "uint256[]"
            }
          ],
          "internalType": "struct ColdChain.Entity",
          "name": "prover",
          "type": "tuple"
        },
        {
          "internalType": "bytes",
          "name": "signature",
          "type": "bytes"
        },
        {
          "internalType": "enum ColdChain.CertificateStatus",
          "name": "status",
          "type": "uint8"
        }
      ],
      "stateMutability": "view",
      "type": "function",
      "constant": true
    },
    {
      "inputs": [
        {
          "internalType": "address",
          "name": "",
          "type": "address"
        }
      ],
      "name": "entities",
      "outputs": [
        {
          "internalType": "address",
          "name": "id",
          "type": "address"
        },
        {
          "internalType": "enum ColdChain.Mode",
          "name": "mode",
          "type": "uint8"
        }
      ],
      "stateMutability": "view",
      "type": "function",
      "constant": true
    },
    {
      "inputs": [
        {
          "internalType": "uint256",
          "name": "",
          "type": "uint256"
        }
      ],
      "name": "vaccineBatchIds",
      "outputs": [
        {
          "internalType": "uint256",
          "name": "",
          "type": "uint256"
        }
      ],
      "stateMutability": "view",
      "type": "function",
      "constant": true
    },
    {
      "inputs": [
        {
          "internalType": "uint256",
          "name": "",
          "type": "uint256"
        }
      ],
      "name": "vaccineBatches",
      "outputs": [
        {
          "internalType": "uint256",
          "name": "id",
          "type": "uint256"
        },
        {
          "internalType": "string",
          "name": "brand",
          "type": "string"
        },
        {
          "internalType": "address",
          "name": "manufacturer",
          "type": "address"
        }
      ],
      "stateMutability": "view",
      "type": "function",
      "constant": true
    },
    {
      "inputs": [
        {
          "internalType": "address",
          "name": "_id",
          "type": "address"
        },
        {
          "internalType": "string",
          "name": "_mode",
          "type": "string"
        }
      ],
      "name": "addEntity",
      "outputs": [],
      "stateMutability": "nonpayable",
      "type": "function"
    },
    {
      "inputs": [
        {
          "internalType": "string",
          "name": "brand",
          "type": "string"
        },
        {
          "internalType": "address",
          "name": "manufacturer",
          "type": "address"
        }
      ],
      "name": "addVaccineBatch",
      "outputs": [
        {
          "internalType": "uint256",
          "name": "",
          "type": "uint256"
        }
      ],
      "stateMutability": "nonpayable",
      "type": "function"
    },
    {
      "inputs": [
        {
          "internalType": "address",
          "name": "_issuer",
          "type": "address"
        },
        {
          "internalType": "address",
          "name": "_prover",
          "type": "address"
        },
        {
          "internalType": "string",
          "name": "_status",
          "type": "string"
        },
        {
          "internalType": "uint256",
          "name": "vaccineBatchId",
          "type": "uint256"
        },
        {
          "internalType": "bytes",
          "name": "signature",
          "type": "bytes"
        }
      ],
      "name": "issueCertificate",
      "outputs": [
        {
          "internalType": "uint256",
          "name": "",
          "type": "uint256"
        }
      ],
      "stateMutability": "nonpayable",
      "type": "function"
    },
    {
      "inputs": [
        {
          "internalType": "bytes32",
          "name": "message",
          "type": "bytes32"
        },
        {
          "internalType": "uint256",
          "name": "id",
          "type": "uint256"
        },
        {
          "internalType": "address",
          "name": "issuer",
          "type": "address"
        }
      ],
      "name": "isMatchingSignature",
      "outputs": [
        {
          "internalType": "bool",
          "name": "",
          "type": "bool"
        }
      ],
      "stateMutability": "view",
      "type": "function",
      "constant": true
    }
  ],
  "bytecode": "0x608060405234801561001057600080fd5b506127e6806100206000396000f3fe608060405234801561001057600080fd5b506004361061009e5760003560e01c8063663b3e2211610066578063663b3e22146101845780637aefaf39146101b8578063b5bad46d146101e8578063c8d8184b14610204578063fc79b0a9146102345761009e565b806303a692b9146100a35780630f9c774d146100d55780631d8ee48a1461010557806345194c07146101365780634851a01d14610166575b600080fd5b6100bd60048036038101906100b891906118d5565b610264565b6040516100cc939291906119eb565b60405180910390f35b6100ef60048036038101906100ea91906118d5565b610336565b6040516100fc9190611a29565b60405180910390f35b61011f600480360381019061011a9190611a70565b61035a565b60405161012d929190611b14565b60405180910390f35b610150600480360381019061014b9190611b73565b6103ab565b60405161015d9190611be1565b60405180910390f35b61016e610733565b60405161017b9190611a29565b60405180910390f35b61019e600480360381019061019991906118d5565b610738565b6040516101af959493929190611dc5565b60405180910390f35b6101d260048036038101906101cd91906118d5565b6109e9565b6040516101df9190611a29565b60405180910390f35b61020260048036038101906101fd9190611f62565b610a0d565b005b61021e6004803603810190610219919061205f565b610bca565b60405161022b9190611a29565b60405180910390f35b61024e60048036038101906102499190612112565b611178565b60405161025b9190611a29565b60405180910390f35b600260205280600052604060002060009150905080600001549080600101805461028d9061219d565b80601f01602080910402602001604051908101604052809291908181526020018280546102b99061219d565b80156103065780601f106102db57610100808354040283529160200191610306565b820191906000526020600020905b8154815290600101906020018083116102e957829003601f168201915b5050505050908060020160009054906101000a900473ffffffffffffffffffffffffffffffffffffffff16905083565b6000818154811061034657600080fd5b906000526020600020016000915090505481565b60046020528060005260406000206000915090508060000160009054906101000a900473ffffffffffffffffffffffffffffffffffffffff16908060000160149054906101000a900460ff16905082565b600080600360008581526020019081526020016000206040518060a001604052908160008201548152602001600182016040518060600160405290816000820160009054906101000a900473ffffffffffffffffffffffffffffffffffffffff1673ffffffffffffffffffffffffffffffffffffffff1673ffffffffffffffffffffffffffffffffffffffff1681526020016000820160149054906101000a900460ff16600281111561046157610460611a9d565b5b600281111561047357610472611a9d565b5b8152602001600182018054806020026020016040519081016040528092919081815260200182805480156104c657602002820191906000526020600020905b8154815260200190600101908083116104b2575b5050505050815250508152602001600382016040518060600160405290816000820160009054906101000a900473ffffffffffffffffffffffffffffffffffffffff1673ffffffffffffffffffffffffffffffffffffffff1673ffffffffffffffffffffffffffffffffffffffff1681526020016000820160149054906101000a900460ff16600281111561055e5761055d611a9d565b5b60028111156105705761056f611a9d565b5b8152602001600182018054806020026020016040519081016040528092919081815260200182805480156105c357602002820191906000526020600020905b8154815260200190600101908083116105af575b50505050508152505081526020016005820180546105e09061219d565b80601f016020809104026020016040519081016040528092919081815260200182805461060c9061219d565b80156106595780601f1061062e57610100808354040283529160200191610659565b820191906000526020600020905b81548152906001019060200180831161063c57829003601f168201915b505050505081526020016006820160009054906101000a900460ff16600481111561068757610686611a9d565b5b600481111561069957610698611a9d565b5b8152505090508273ffffffffffffffffffffffffffffffffffffffff1681602001516000015173ffffffffffffffffffffffffffffffffffffffff16146106df57600080fd5b60006106ef868360600151611339565b905081602001516000015173ffffffffffffffffffffffffffffffffffffffff168173ffffffffffffffffffffffffffffffffffffffff1614925050509392505050565b600281565b6003602052806000526040600020600091509050806000015490806001016040518060600160405290816000820160009054906101000a900473ffffffffffffffffffffffffffffffffffffffff1673ffffffffffffffffffffffffffffffffffffffff1673ffffffffffffffffffffffffffffffffffffffff1681526020016000820160149054906101000a900460ff1660028111156107dc576107db611a9d565b5b60028111156107ee576107ed611a9d565b5b81526020016001820180548060200260200160405190810160405280929190818152602001828054801561084157602002820191906000526020600020905b81548152602001906001019080831161082d575b50505050508152505090806003016040518060600160405290816000820160009054906101000a900473ffffffffffffffffffffffffffffffffffffffff1673ffffffffffffffffffffffffffffffffffffffff1673ffffffffffffffffffffffffffffffffffffffff1681526020016000820160149054906101000a900460ff1660028111156108d5576108d4611a9d565b5b60028111156108e7576108e6611a9d565b5b81526020016001820180548060200260200160405190810160405280929190818152602001828054801561093a57602002820191906000526020600020905b815481526020019060010190808311610926575b505050505081525050908060050180546109539061219d565b80601f016020809104026020016040519081016040528092919081815260200182805461097f9061219d565b80156109cc5780601f106109a1576101008083540402835291602001916109cc565b820191906000526020600020905b8154815290600101906020018083116109af57829003601f168201915b5050505050908060060160009054906101000a900460ff16905085565b600181815481106109f957600080fd5b906000526020600020016000915090505481565b6000610a1882611411565b90506000600267ffffffffffffffff811115610a3757610a36611e37565b5b604051908082528060200260200182016040528015610a655781602001602082028036833780820191505090505b509050600060405180606001604052808673ffffffffffffffffffffffffffffffffffffffff168152602001846002811115610aa457610aa3611a9d565b5b815260200183815250905080600460008773ffffffffffffffffffffffffffffffffffffffff1673ffffffffffffffffffffffffffffffffffffffff16815260200190815260200160002060008201518160000160006101000a81548173ffffffffffffffffffffffffffffffffffffffff021916908373ffffffffffffffffffffffffffffffffffffffff16021790555060208201518160000160146101000a81548160ff02191690836002811115610b6157610b60611a9d565b5b02179055506040820151816001019080519060200190610b82929190611715565b509050507ff5a37da00f0e4029ee2682b1919ee55d7e6f9d7492237aad9bd1aea7d53d4874816000015185604051610bbb9291906121cf565b60405180910390a15050505050565b600080600460008873ffffffffffffffffffffffffffffffffffffffff1673ffffffffffffffffffffffffffffffffffffffff1681526020019081526020016000206040518060600160405290816000820160009054906101000a900473ffffffffffffffffffffffffffffffffffffffff1673ffffffffffffffffffffffffffffffffffffffff1673ffffffffffffffffffffffffffffffffffffffff1681526020016000820160149054906101000a900460ff166002811115610c9257610c91611a9d565b5b6002811115610ca457610ca3611a9d565b5b815260200160018201805480602002602001604051908101604052809291908181526020018280548015610cf757602002820191906000526020600020905b815481526020019060010190808311610ce3575b505050505081525050905060006002811115610d1657610d15611a9d565b5b81602001516002811115610d2d57610d2c611a9d565b5b14610d3757600080fd5b6000600460008873ffffffffffffffffffffffffffffffffffffffff1673ffffffffffffffffffffffffffffffffffffffff1681526020019081526020016000206040518060600160405290816000820160009054906101000a900473ffffffffffffffffffffffffffffffffffffffff1673ffffffffffffffffffffffffffffffffffffffff1673ffffffffffffffffffffffffffffffffffffffff1681526020016000820160149054906101000a900460ff166002811115610dfe57610dfd611a9d565b5b6002811115610e1057610e0f611a9d565b5b815260200160018201805480602002602001604051908101604052809291908181526020018280548015610e6357602002820191906000526020600020905b815481526020019060010190808311610e4f575b505050505081525050905060016002811115610e8257610e81611a9d565b5b81602001516002811115610e9957610e98611a9d565b5b14610ea357600080fd5b6000610eae87611537565b905060008080549050905060006040518060a00160405280838152602001868152602001858152602001888152602001846004811115610ef157610ef0611a9d565b5b815250905060008080549050908060018154018082558091505060019003906000526020600020016000909190919091505580600360006001600080549050610f3a919061222e565b81526020019081526020016000206000820151816000015560208201518160010160008201518160000160006101000a81548173ffffffffffffffffffffffffffffffffffffffff021916908373ffffffffffffffffffffffffffffffffffffffff16021790555060208201518160000160146101000a81548160ff02191690836002811115610fcd57610fcc611a9d565b5b02179055506040820151816001019080519060200190610fee929190611715565b50505060408201518160030160008201518160000160006101000a81548173ffffffffffffffffffffffffffffffffffffffff021916908373ffffffffffffffffffffffffffffffffffffffff16021790555060208201518160000160146101000a81548160ff0219169083600281111561106c5761106b611a9d565b5b0217905550604082015181600101908051906020019061108d929190611715565b50505060608201518160050190805190602001906110ac929190611762565b5060808201518160060160006101000a81548160ff021916908360048111156110d8576110d7611a9d565b5b02179055509050508973ffffffffffffffffffffffffffffffffffffffff168b73ffffffffffffffffffffffffffffffffffffffff167fc9e3e855764ebb21ed83dcdf8ed5e1398c752d6446308e092c28a84a77a199bd6001600080549050611141919061222e565b60405161114e9190611a29565b60405180910390a36001600080549050611168919061222e565b9550505050505095945050505050565b600080600267ffffffffffffffff81111561119657611195611e37565b5b6040519080825280602002602001820160405280156111c45781602001602082028036833780820191505090505b50905060006001805490509050600060405180608001604052808381526020018781526020018673ffffffffffffffffffffffffffffffffffffffff16815260200184815250905080600260008481526020019081526020016000206000820151816000015560208201518160010190805190602001906112469291906117e8565b5060408201518160020160006101000a81548173ffffffffffffffffffffffffffffffffffffffff021916908373ffffffffffffffffffffffffffffffffffffffff16021790555060608201518160030190805190602001906112aa929190611715565b509050506001829080600181540180825580915050600190039060005260206000200160009091909190915055806040015173ffffffffffffffffffffffffffffffffffffffff167fe85391abb5e51659c581dd95107048251657ee66755655cc08c9c0ec3a0a913982600001516040516113259190611a29565b60405180910390a281935050505092915050565b600080600080611348856116e3565b92509250925060006040518060400160405280601c81526020017f19457468657265756d205369676e6564204d6573736167653a0a33320000000081525090506000818860405160200161139d9291906122bf565b604051602081830303815290604052805190602001209050600181868686604051600081526020016040526040516113d89493929190612312565b6020604051602081039080840390855afa1580156113fa573d6000803e3d6000fd5b505050602060405103519550505050505092915050565b600080826040516020016114259190612393565b604051602081830303815290604052805190602001209050600060405160200161144e906123f6565b604051602081830303815290604052805190602001209050600060405160200161147790612457565b60405160208183030381529060405280519060200120905060006040516020016114a0906124b8565b604051602081830303815290604052805190602001209050828414156114cd576000945050505050611532565b818414156114e2576001945050505050611532565b808414156114f7576002945050505050611532565b6040517f08c379a000000000000000000000000000000000000000000000000000000000815260040161152990612519565b60405180910390fd5b919050565b6000808260405160200161154b9190612393565b604051602081830303815290604052805190602001209050600060405160200161157490612585565b604051602081830303815290604052805190602001209050600060405160200161159d906125e6565b60405160208183030381529060405280519060200120905060006040516020016115c690612647565b60405160208183030381529060405280519060200120905060006040516020016115ef906126a8565b604051602081830303815290604052805190602001209050600060405160200161161890612709565b6040516020818303038152906040528051906020012090508486141561164757600096505050505050506116de565b8386141561165e57600196505050505050506116de565b8286141561167557600296505050505050506116de565b8186141561168c57600396505050505050506116de565b808614156116a357600496505050505050506116de565b6040517f08c379a00000000000000000000000000000000000000000000000000000000081526004016116d590612790565b60405180910390fd5b919050565b600080600060418451146116f657600080fd5b6020840151915060408401519050606084015160001a92509193909250565b828054828255906000526020600020908101928215611751579160200282015b82811115611750578251825591602001919060010190611735565b5b50905061175e919061186e565b5090565b82805461176e9061219d565b90600052602060002090601f01602090048101928261179057600085556117d7565b82601f106117a957805160ff19168380011785556117d7565b828001600101855582156117d7579182015b828111156117d65782518255916020019190600101906117bb565b5b5090506117e4919061186e565b5090565b8280546117f49061219d565b90600052602060002090601f016020900481019282611816576000855561185d565b82601f1061182f57805160ff191683800117855561185d565b8280016001018555821561185d579182015b8281111561185c578251825591602001919060010190611841565b5b50905061186a919061186e565b5090565b5b8082111561188757600081600090555060010161186f565b5090565b6000604051905090565b600080fd5b600080fd5b6000819050919050565b6118b28161189f565b81146118bd57600080fd5b50565b6000813590506118cf816118a9565b92915050565b6000602082840312156118eb576118ea611895565b5b60006118f9848285016118c0565b91505092915050565b61190b8161189f565b82525050565b600081519050919050565b600082825260208201905092915050565b60005b8381101561194b578082015181840152602081019050611930565b8381111561195a576000848401525b50505050565b6000601f19601f8301169050919050565b600061197c82611911565b611986818561191c565b935061199681856020860161192d565b61199f81611960565b840191505092915050565b600073ffffffffffffffffffffffffffffffffffffffff82169050919050565b60006119d5826119aa565b9050919050565b6119e5816119ca565b82525050565b6000606082019050611a006000830186611902565b8181036020830152611a128185611971565b9050611a2160408301846119dc565b949350505050565b6000602082019050611a3e6000830184611902565b92915050565b611a4d816119ca565b8114611a5857600080fd5b50565b600081359050611a6a81611a44565b92915050565b600060208284031215611a8657611a85611895565b5b6000611a9484828501611a5b565b91505092915050565b7f4e487b7100000000000000000000000000000000000000000000000000000000600052602160045260246000fd5b60038110611add57611adc611a9d565b5b50565b6000819050611aee82611acc565b919050565b6000611afe82611ae0565b9050919050565b611b0e81611af3565b82525050565b6000604082019050611b2960008301856119dc565b611b366020830184611b05565b9392505050565b6000819050919050565b611b5081611b3d565b8114611b5b57600080fd5b50565b600081359050611b6d81611b47565b92915050565b600080600060608486031215611b8c57611b8b611895565b5b6000611b9a86828701611b5e565b9350506020611bab868287016118c0565b9250506040611bbc86828701611a5b565b9150509250925092565b60008115159050919050565b611bdb81611bc6565b82525050565b6000602082019050611bf66000830184611bd2565b92915050565b611c05816119ca565b82525050565b611c1481611af3565b82525050565b600081519050919050565b600082825260208201905092915050565b6000819050602082019050919050565b611c4f8161189f565b82525050565b6000611c618383611c46565b60208301905092915050565b6000602082019050919050565b6000611c8582611c1a565b611c8f8185611c25565b9350611c9a83611c36565b8060005b83811015611ccb578151611cb28882611c55565b9750611cbd83611c6d565b925050600181019050611c9e565b5085935050505092915050565b6000606083016000830151611cf06000860182611bfc565b506020830151611d036020860182611c0b565b5060408301518482036040860152611d1b8282611c7a565b9150508091505092915050565b600081519050919050565b600082825260208201905092915050565b6000611d4f82611d28565b611d598185611d33565b9350611d6981856020860161192d565b611d7281611960565b840191505092915050565b60058110611d8e57611d8d611a9d565b5b50565b6000819050611d9f82611d7d565b919050565b6000611daf82611d91565b9050919050565b611dbf81611da4565b82525050565b600060a082019050611dda6000830188611902565b8181036020830152611dec8187611cd8565b90508181036040830152611e008186611cd8565b90508181036060830152611e148185611d44565b9050611e236080830184611db6565b9695505050505050565b600080fd5b600080fd5b7f4e487b7100000000000000000000000000000000000000000000000000000000600052604160045260246000fd5b611e6f82611960565b810181811067ffffffffffffffff82111715611e8e57611e8d611e37565b5b80604052505050565b6000611ea161188b565b9050611ead8282611e66565b919050565b600067ffffffffffffffff821115611ecd57611ecc611e37565b5b611ed682611960565b9050602081019050919050565b82818337600083830152505050565b6000611f05611f0084611eb2565b611e97565b905082815260208101848484011115611f2157611f20611e32565b5b611f2c848285611ee3565b509392505050565b600082601f830112611f4957611f48611e2d565b5b8135611f59848260208601611ef2565b91505092915050565b60008060408385031215611f7957611f78611895565b5b6000611f8785828601611a5b565b925050602083013567ffffffffffffffff811115611fa857611fa761189a565b5b611fb485828601611f34565b9150509250929050565b600067ffffffffffffffff821115611fd957611fd8611e37565b5b611fe282611960565b9050602081019050919050565b6000612002611ffd84611fbe565b611e97565b90508281526020810184848401111561201e5761201d611e32565b5b612029848285611ee3565b509392505050565b600082601f83011261204657612045611e2d565b5b8135612056848260208601611fef565b91505092915050565b600080600080600060a0868803121561207b5761207a611895565b5b600061208988828901611a5b565b955050602061209a88828901611a5b565b945050604086013567ffffffffffffffff8111156120bb576120ba61189a565b5b6120c788828901611f34565b93505060606120d8888289016118c0565b925050608086013567ffffffffffffffff8111156120f9576120f861189a565b5b61210588828901612031565b9150509295509295909350565b6000806040838503121561212957612128611895565b5b600083013567ffffffffffffffff8111156121475761214661189a565b5b61215385828601611f34565b925050602061216485828601611a5b565b9150509250929050565b7f4e487b7100000000000000000000000000000000000000000000000000000000600052602260045260246000fd5b600060028204905060018216806121b557607f821691505b602082108114156121c9576121c861216e565b5b50919050565b60006040820190506121e460008301856119dc565b81810360208301526121f68184611971565b90509392505050565b7f4e487b7100000000000000000000000000000000000000000000000000000000600052601160045260246000fd5b60006122398261189f565b91506122448361189f565b925082821015612257576122566121ff565b5b828203905092915050565b600081905092915050565b600061227882611d28565b6122828185612262565b935061229281856020860161192d565b80840191505092915050565b6000819050919050565b6122b96122b482611b3d565b61229e565b82525050565b60006122cb828561226d565b91506122d782846122a8565b6020820191508190509392505050565b6122f081611b3d565b82525050565b600060ff82169050919050565b61230c816122f6565b82525050565b600060808201905061232760008301876122e7565b6123346020830186612303565b61234160408301856122e7565b61234e60608301846122e7565b95945050505050565b600081905092915050565b600061236d82611911565b6123778185612357565b935061238781856020860161192d565b80840191505092915050565b600061239f8284612362565b915081905092915050565b7f4953535545520000000000000000000000000000000000000000000000000000600082015250565b60006123e0600683612357565b91506123eb826123aa565b600682019050919050565b6000612401826123d3565b9150819050919050565b7f50524f5645520000000000000000000000000000000000000000000000000000600082015250565b6000612441600683612357565b915061244c8261240b565b600682019050919050565b600061246282612434565b9150819050919050565b7f5645524946494552000000000000000000000000000000000000000000000000600082015250565b60006124a2600883612357565b91506124ad8261246c565b600882019050919050565b60006124c382612495565b9150819050919050565b7f726563656976656420696e76616c696420656e74697479206d6f646500000000600082015250565b6000612503601c8361191c565b915061250e826124cd565b602082019050919050565b60006020820190508181036000830152612532816124f6565b9050919050565b7f4d414e55464143544f5245440000000000000000000000000000000000000000600082015250565b600061256f600c83612357565b915061257a82612539565b600c82019050919050565b600061259082612562565b9150819050919050565b7f44454c49564552494e475f494e5445524e4154494f4e414c0000000000000000600082015250565b60006125d0601883612357565b91506125db8261259a565b601882019050919050565b60006125f1826125c3565b9150819050919050565b7f53544f5245440000000000000000000000000000000000000000000000000000600082015250565b6000612631600683612357565b915061263c826125fb565b600682019050919050565b600061265282612624565b9150819050919050565b7f44454c49564552494e475f4c4f43414c00000000000000000000000000000000600082015250565b6000612692601083612357565b915061269d8261265c565b601082019050919050565b60006126b382612685565b9150819050919050565b7f44454c4956455245440000000000000000000000000000000000000000000000600082015250565b60006126f3600983612357565b91506126fe826126bd565b600982019050919050565b6000612714826126e6565b9150819050919050565b7f726563656976656420696e76616c69642063657274696669636174652073746160008201527f7475730000000000000000000000000000000000000000000000000000000000602082015250565b600061277a60238361191c565b91506127858261271e565b604082019050919050565b600060208201905081810360008301526127a98161276d565b905091905056fea264697066735822122092f20de52687712c827a7ef0dd350d8eaca864a5b1ba3acdd472c9752a12755e64736f6c634300080b0033",
  "immutableReferences": {},
  "source": "// SPDX-License-Identifier: GPL-3.0\r\n\r\npragma solidity ^0.8.11;\r\n\r\nlibrary CryptoSuite {\r\n\r\n    function splitSignature(bytes memory _sign) internal pure returns(uint8 v, bytes32 r, bytes32 s) {\r\n        \r\n        require(_sign.length == 65);\r\n\r\n        //accessing virtual machine to make low level changes.\r\n        assembly {\r\n\r\n            //first 32 bytes\r\n            r := mload(add(_sign, 32))\r\n            //next 32 bytes\r\n            s := mload(add(_sign, 64))\r\n            //last 32 bytes\r\n            v := byte(0, mload(add(_sign, 96)))\r\n\r\n        }\r\n\r\n        return (v, r, s);\r\n        \r\n    }\r\n\r\n    //split Signature, recieve signature for message, extract signer from that message\r\n\r\n    function recoverSigner(bytes32 _message, bytes memory _sign) internal pure returns(address){\r\n        //first get values\r\n\r\n        (uint8 v, bytes32 r, bytes32 s) = splitSignature(_sign);\r\n\r\n        bytes memory prefix = \"\\x19Ethereum Signed Message:\\n32\";\r\n        bytes32 prefixHash = keccak256(abi.encodePacked(prefix, _message));\r\n\r\n        return ecrecover(prefixHash, v, r, s);\r\n\r\n    } \r\n\r\n}\r\n\r\ncontract ColdChain {\r\n\r\n    enum CertificateStatus { MANUFACTORED, DELIVERING_INTERNATIONAL, STORED, DELIVERING_LOCAL, DELIVERED }\r\n\r\n    struct Certificate {\r\n        uint id;\r\n        Entity issuer;\r\n        Entity prover;\r\n        bytes signature;\r\n        CertificateStatus status;\r\n    }\r\n\r\n    enum Mode { ISSUER, PROVER, VERIFIER }\r\n\r\n    struct Entity {\r\n        address id;\r\n        Mode mode;\r\n        uint[] certificateIds;\r\n    }\r\n\r\n    struct VaccineBatch {\r\n        uint id;\r\n        string brand;\r\n        address manufacturer;\r\n        uint[] certificateIds;\r\n    }\r\n\r\n    uint public constant MAX_CERTIFICATIONS = 2;\r\n    uint[] public certificateIds;\r\n    uint[] public vaccineBatchIds;\r\n\r\n    mapping(uint => VaccineBatch) public vaccineBatches;\r\n    mapping(uint => Certificate) public certificates;\r\n    mapping(address => Entity) public entities;\r\n\r\n    event AddEntity(address entityId, string entityMode);\r\n    event AddVaccineBatch(uint vaccineBatchId, address indexed manufacturer);\r\n    event IssueCertificate(address indexed issuer, address indexed prover, uint certificateId);\r\n\r\n    function addEntity(address _id, string memory _mode) public {\r\n        //converting _mode string to enum\r\n        Mode mode = unmarshalMode(_mode);\r\n        uint[] memory _certificateIds = new uint[](MAX_CERTIFICATIONS);\r\n        Entity memory entity = Entity(_id, mode, _certificateIds);\r\n        entities[_id] = entity;\r\n        emit AddEntity(entity.id, _mode);\r\n    }\r\n\r\n    function addVaccineBatch(string memory brand, address manufacturer) public returns(uint){\r\n        uint[] memory _certificateIds = new uint[](MAX_CERTIFICATIONS);\r\n        uint id = vaccineBatchIds.length;\r\n        VaccineBatch memory batch = VaccineBatch(id, brand, manufacturer, _certificateIds);\r\n        vaccineBatches[id] = batch;\r\n        vaccineBatchIds.push(id);\r\n        emit AddVaccineBatch(batch.id, batch.manufacturer);\r\n        return id;\r\n    }\r\n\r\n    function issueCertificate(\r\n        address _issuer, \r\n        address _prover, \r\n        string memory _status,\r\n        uint vaccineBatchId,\r\n        bytes memory signature) public returns(uint) {\r\n\r\n            Entity memory issuer = entities[_issuer];\r\n            require(issuer.mode == Mode.ISSUER);\r\n\r\n            Entity memory prover = entities[_prover];\r\n            require(prover.mode == Mode.PROVER);\r\n\r\n            CertificateStatus status = unmarshalStatus(_status);\r\n            uint id = certificateIds.length;\r\n            Certificate memory certificate = Certificate(id, issuer, prover, signature, status);\r\n\r\n            certificateIds.push(certificateIds.length);\r\n            certificates[certificateIds.length-1] = certificate;\r\n\r\n            emit IssueCertificate(_issuer, _prover, certificateIds.length-1);\r\n            //position\r\n            return certificateIds.length-1;\r\n    }\r\n\r\n    function isMatchingSignature(bytes32 message, uint id, address issuer) public view returns(bool){\r\n        Certificate memory cert = certificates[id];\r\n        require(cert.issuer.id == issuer);\r\n        address recoveredSigner = CryptoSuite.recoverSigner(message, cert.signature);\r\n\r\n        return recoveredSigner == cert.issuer.id;\r\n    }\r\n\r\n    //utilities\r\n\r\n    function unmarshalMode(string memory _mode) private pure returns(Mode mode){\r\n\r\n        bytes32 encodedMode = keccak256(abi.encodePacked(_mode));\r\n        bytes32 encodedMode0 = keccak256(abi.encodePacked(\"ISSUER\"));\r\n        bytes32 encodedMode1 = keccak256(abi.encodePacked(\"PROVER\"));\r\n        bytes32 encodedMode2 = keccak256(abi.encodePacked(\"VERIFIER\"));\r\n\r\n        if(encodedMode == encodedMode0){\r\n            return Mode.ISSUER;\r\n        }\r\n\r\n        else if(encodedMode == encodedMode1){\r\n            return Mode.PROVER;\r\n        }\r\n\r\n        else if(encodedMode == encodedMode2){\r\n            return Mode.VERIFIER;\r\n        }\r\n\r\n        revert(\"received invalid entity mode\");\r\n    }\r\n\r\n    function unmarshalStatus(string memory _status) private pure returns(CertificateStatus status){\r\n\r\n        bytes32 encodedStatus = keccak256(abi.encodePacked(_status));\r\n        bytes32 encodedStatus0 = keccak256(abi.encodePacked(\"MANUFACTORED\"));\r\n        bytes32 encodedStatus1 = keccak256(abi.encodePacked(\"DELIVERING_INTERNATIONAL\"));\r\n        bytes32 encodedStatus2 = keccak256(abi.encodePacked(\"STORED\"));\r\n        bytes32 encodedStatus3 = keccak256(abi.encodePacked(\"DELIVERING_LOCAL\"));\r\n        bytes32 encodedStatus4 = keccak256(abi.encodePacked(\"DELIVERED\"));\r\n\r\n        if(encodedStatus == encodedStatus0){\r\n            return CertificateStatus.MANUFACTORED;\r\n        }\r\n\r\n        else if(encodedStatus == encodedStatus1){\r\n            return CertificateStatus.DELIVERING_INTERNATIONAL;\r\n        }\r\n\r\n        else if(encodedStatus == encodedStatus2){\r\n            return CertificateStatus.STORED;\r\n        }\r\n\r\n        else if(encodedStatus == encodedStatus3){\r\n            return CertificateStatus.DELIVERING_LOCAL;\r\n        }\r\n\r\n        else if(encodedStatus == encodedStatus4){\r\n            return CertificateStatus.DELIVERED;\r\n        }\r\n\r\n        revert(\"received invalid certificate status\");\r\n    }\r\n\r\n}",
  "sourcePath": "C:\\Users\\92336\\Desktop\\ColdChain\\contracts\\ColdChain.sol",
  "compiler": {
    "name": "solc",
    "version": "0.8.11+commit.d7f03943.Emscripten.clang"
  },
  "schemaVersion": "3.4.4",
  "updatedAt": "2022-01-28T19:18:44.992Z",
  "networkType": "ethereum",
  "devdoc": {
    "kind": "dev",
    "methods": {},
    "version": 1
  },
  "userdoc": {
    "kind": "user",
    "methods": {},
    "version": 1
  }
}